:020000040800F2
:100000000050002065280008192700081B27000859
:100010001D2700081F2700082127000800000000F6
:10002000000000000000000000000000232700087E
:1000300025270008000000002727000829270008BE
:10004000AD280008AD280008AD280008AD2800083C
:10005000AD280008AD280008AD280008AD2800082C
:10006000AD280008AD280008AD280008AD2800081C
:10007000AD280008AD280008AD280008AD2800080C
:10008000AD280008AD280008AD280008AD280008FC
:10009000AD280008AD280008AD2800082D2700086D
:1000A000AD280008AD280008AD280008AD280008DC
:1000B000AD280008AD280008AD280008AD280008CC
:1000C000AD280008AD280008AD280008AD280008BC
:1000D000AD280008AD280008AD280008AD280008AC
:1000E000AD280008AD280008AD2800080000000079
:1000F0000000000000000000000000000000000000
:0C01000000000000000000005FF808F1A3
:10010C0010B5054C237833B9044B13B10448AFF345
:10011C0000800123237010BD70000020000000003F
:10012C006C31000808B5034B1BB103490348AFF30E
:10013C00008008BD00000000740000206C31000835
:10014C00034613F8012B002AFBD1181A013870470B
:10015C0080F0004002E000BF81F0004142001FBF70
:10016C005FEA410392EA030F7FEA226C7FEA236C79
:10017C006AD04FEA1262D2EB1363C1BFD21841406E
:10018C0048404140B8BF5B42192B88BF704710F004
:10019C00004F40F4000020F07F4018BF404211F0A7
:1001AC00004F41F4000121F07F4118BF494292EA0F
:1001BC00030F3FD0A2F1010241FA03FC10EB0C003B
:1001CC00C3F1200301FA03F100F0004302D54942C8
:1001DC0060EB4000B0F5000F13D3B0F1807F06D375
:1001EC0040084FEA310102F10102FE2A51D2B1F16D
:1001FC00004F40EBC25008BF20F0010040EA030062
:10020C007047490040EB000010F4000FA2F101020E
:10021C00EDD1B0FA80FCACF1080CB2EB0C0200FA98
:10022C000CF0AABF00EBC25052421843BCBFD040E6
:10023C001843704792F0000F81F4000106BF80F460
:10024C0000000132013BB5E74FEA41037FEA226C23
:10025C0018BF7FEA236C21D092EA030F04D092F0EE
:10026C00000F08BF0846704790EA010F1CBF002022
:10027C00704712F07F4F04D1400028BF40F000407F
:10028C00704712F100723CBF00F50000704700F09F
:10029C00004343F0FE4040F4000070477FEA2262C6
:1002AC0016BF08467FEA23630146420206BF5FEA97
:1002BC00412390EA010F40F4800070474FF0000397
:1002CC0004E000BF10F0004348BF40425FEA000C5E
:1002DC0008BF704743F0964301464FF000001CE006
:1002EC0050EA010208BF70474FF000030AE000BF5C
:1002FC0050EA010208BF704711F0004302D540429A
:10030C0061EB41015FEA010C02BF8446014600200B
:10031C0043F0B64308BFA3F18053A3F50003BCFA26
:10032C008CF2083AA3EBC25310DB01FA02FC6344D3
:10033C0000FA02FCC2F12002BCF1004F20FA02F2DA
:10034C0043EB020008BF20F00100704702F12002CD
:10035C0001FA02FCC2F1200250EA4C0021FA02F22E
:10036C0043EB020008BF20EADC7070474FF0FF0C33
:10037C001CEAD0521EBF1CEAD15392EA0C0F93EA2E
:10038C000C0F6FD01A4480EA010C400218BF5FEAD0
:10039C0041211ED04FF0006343EA501043EA511143
:1003AC00A0FB01310CF00040B1F5000F3EBF49003D
:1003BC0041EAD3715B0040EA010062F17F02FD2A41
:1003CC001DD8B3F1004F40EBC25008BF20F0010024
:1003DC00704790F0000F0CF0004C08BF49024CEA3B
:1003EC00502040EA51207F3AC2BFD2F1FF0340EACD
:1003FC00C250704740F400004FF00003013A5DDC3E
:10040C0012F1190FDCBF00F000407047C2F100027E
:10041C00410021FA02F1C2F1200200FA02FC5FEA6B
:10042C00310040F1000053EA4C0308BF20EADC70B5
:10043C00704792F0000F00F0004C02BF400010F427
:10044C00000F013AF9D040EA0C0093F0000F01F0D4
:10045C00004C02BF490011F4000F013BF9D041EAF6
:10046C000C018FE70CEAD15392EA0C0F18BF93EAF8
:10047C000C0F0AD030F0004C18BF31F0004CD8D122
:10048C0080EA010000F00040704790F0000F17BFA9
:10049C0090F0004F084691F0000F91F0004F14D0EF
:1004AC0092EA0C0F01D142020FD193EA0C0F03D147
:1004BC004B0218BF084608D180EA010000F000404A
:1004CC0040F0FE4040F40000704740F0FE4040F425
:1004DC00400070474FF0FF0C1CEAD0521EBF1CEAC4
:1004EC00D15392EA0C0F93EA0C0F69D0A2EB0302E2
:1004FC0080EA010C49024FEA402037D04FF080537C
:10050C0043EA111143EA10130CF000408B4238BF40
:10051C005B0042F17D024FF4000C8B4224BF5B1A4E
:10052C0040EA0C00B3EB510F24BFA3EB510340EA9C
:10053C005C00B3EB910F24BFA3EB910340EA9C004A
:10054C00B3EBD10F24BFA3EBD10340EADC001B01BA
:10055C0018BF5FEA1C1CE0D1FD2A3FF650AF8B425E
:10056C0040EBC25008BF20F0010070470CF0004C6B
:10057C004CEA50207F32C2BFD2F1FF0340EAC25096
:10058C00704740F400004FF00003013A37E792F057
:10059C00000F00F0004C02BF400010F4000F013AB5
:1005AC00F9D040EA0C0093F0000F01F0004C02BFB0
:1005BC00490011F4000F013BF9D041EA0C0195E719
:1005CC000CEAD15392EA0C0F08D142027FF47DAFB2
:1005DC0093EA0C0F7FF470AF084676E793EA0C0FA2
:1005EC0004D14B023FF44CAF08466EE730F0004CA0
:1005FC0018BF31F0004CCAD130F000427FF45CAF30
:10060C0031F000437FF43CAF5FE700BF4FEA40029C
:10061C00B2F1FE4F0FD34FF09E03B3EB12620DD924
:10062C004FEA002343F0004310F0004F23FA02F08E
:10063C0018BF404270474FF00000704712F1610F35
:10064C0001D1420205D110F0004008BF6FF000400C
:10065C0070474FF00000704738B50E4B05461878C0
:10066C004FF47A73B3FBF0F30B4A1068B0FBF3F062
:10067C0000F08CF8044658B90F2D09D802462946CB
:10068C004FF0FF3000F042F8044B20461D6038BD9F
:10069C00012038BD000000200800002004000020CC
:1006AC00074A08B51368032043F01003136000F0E9
:1006BC001BF80020FFF7D0FF02F006F8002008BD61
:1006CC0000200240034A044B11681B780B44136052
:1006DC00704700BFF817002000000020014B18687D
:1006EC00704700BFF8170020074A0002D36800F4D7
:1006FC00E06023F4E0631B041B0C43F0BF6343F482
:10070C0000330343D360704700ED00E0174B30B566
:10071C00DC68C4F30224C4F10703251D042B28BF95
:10072C000423062D4FF0010598BF002405FA03F3AE
:10073C0003F1FF3388BF033C1940A14005FA04F4D0
:10074C00013C2240002842EA01024FEA0212AFBFEC
:10075C0000F16040064B00F00F00D2B2A5BFD2B240
:10076C0000F561401A5480F8002330BD00ED00E024
:10077C0014ED00E00123420900F01F0003FA00F021
:10078C00014B43F82200704700E100E00138B0F162
:10079C00807F0AD2F021064B064A586082F823105B
:1007AC000020072298601A6070470120704700BF34
:1007BC0010E000E000ED00E02DE9F74F00221646B6
:1007CC00654BDFF8A4E1DFF8A4C14FF001080C6819
:1007DC0008FA06F808EA0404A0457FD14D68122DEA
:1007EC0000F0AF8000F28880022D00F0A7807CD84A
:1007FC00002D00F08E80012D00F09E804FF00F092F
:10080C00FF2C93BF824606F18045083DD0F800B01E
:10081C0092BFB500D0F804B0AD0009FA05F82BEA88
:10082C00080802FA05F588BF00F1040A48EA050534
:10083C00CAF80050D1F804A01AF0805F4ED0474D92
:10084C00464FAD6926F0030845F00105BD61BD6951
:10085C0008F1804805F00105019508F5803806F08F
:10086C00030B019D4FEA8B0BD8F8085009FA0BF9D2
:10087C0025EA09093A4DA84268D005F58065A842D9
:10088C0066D005F58065A84264D005F58065A84260
:10089C000CBF0325042505FA0BF545EA0905C8F834
:1008AC0008501D681AF4803F14BF2543A5431D60F2
:1008BC005D681AF4003F14BF2543A5435D609D6835
:1008CC001AF4801F14BF2543A5439D60DD681AF4FC
:1008DC00001F14BF2C4325EA0404DC600136102EE3
:1008EC007FF473AF03B0BDE8F08F032D22D0112D30
:1008FC0084D1CA68043281E71A4FBD4209D012D89C
:10090C00DFF86C904D4504D009F580394D457FF4E6
:10091C0075AF8A68C2B1012A0CBFC0F81080C0F84C
:10092C00148008226AE77545F3D06545F1D0DFF8ED
:10093C004490EBE7002261E7CA685FE7CA680832B7
:10094C005CE7CA680C3259E7042257E70025A2E796
:10095C000125A0E702259EE700040140001002409B
:10096C00000801400000211000003110000032107E
:10097C0000001110000022100AB101617047090437
:10098C00FBE7000008B5044B5969014202D05861DD
:10099C0001F094FE08BD00BF0004014002685369D9
:1009AC0013F480630DD06FF4806353610423202211
:1009BC0003640023036380F83C3080F83D20012061
:1009CC007047184670472DE9F84304461746994678
:1009DC00C1F307488EB22568B8F1010F0CBF6B69E3
:1009EC00AB6936EA030314BF0120002008B9BDE847
:1009FC00F8836B695A0512D52B68202243F40073D7
:100A0C002B606FF480636B6104232364002301204B
:100A1C00236384F83C3084F83D20BDE8F8837B1CCC
:100A2C00D9D04FB900232022236384F83C3084F8BA
:100A3C003D200320BDE8F883FFF750FEA0EB090032
:100A4C008742C8D2EEE72DE9F843044690461F468C
:100A5C00089EC1F307498DB22368B9F1010F0CBF91
:100A6C005B699B6935EA03030CBF012300234345F3
:100A7C0002D00020BDE8F8837B1CEDD05FB90023C9
:100A8C002022236384F83C3084F83D20032084F832
:100A9C003E30BDE8F883FFF721FE801B8742DBD296
:100AAC00EDE770B504460D46164623685B691B06D8
:100ABC0001D5002070BD2046FFF770FFA8B96A1C55
:100ACC00F3D065B9236C202243F020032364002368
:100ADC000320236384F83C3084F83D2070BDFFF77D
:100AEC00FDFD801B8542E0D2ECE7012070BD0000CB
:100AFC002DE9FF4115460268984613680B9E43F496
:100B0C00807313600F4600960A9B00224FF0011170
:100B1C000446FFF798FF68B9236807F0FE071F61CA
:100B2C000A9A33461A492046FFF74DFF30B1236C21
:100B3C00042B18D0032004B0BDE8F0812368039087
:100B4C005A690A9903929B69324603932046039B88
:100B5C00FFF7A7FF48B1236C042BEBD12268136875
:100B6C0043F4007313600120E5E7B8F1010F23682B
:100B7C0002D1EDB21D61DEE72A0A1A610A993246EA
:100B8C002046FFF78EFF0028E5D12368F1E700BF70
:100B9C00020001002DE9FF419846036816461A68C9
:100BAC000B9D42F480621A601A680F4642F4807200
:100BBC001A604FF0011100950A9B00220446FFF7C2
:100BCC0042FF80B92368FFB207F0FE021A612D497B
:100BDC002B460A9A2046FFF7F6FE40B1236C042BF5
:100BEC0001D1012000E0032004B0BDE8F0812368AE
:100BFC0003905A690A9903929B692A4603932046EB
:100C0C00039BFFF74EFF40B1236C042BEBD1226802
:100C1C00136843F400731360E3E7B8F1010F236822
:100C2C0024D1F6B21E612A460A992046FFF739FFF5
:100C3C0002460028E8D1216820460B6843F48073F3
:100C4C000B6000950A9B4FF00111FFF7FCFE00288A
:100C5C00C9D1236847F001071F610A9A2B4609493D
:100C6C002046FFF7B0FE0028B8D1BDE7320A1A6162
:100C7C000A992A462046FFF714FF0028C4D123689E
:100C8C00CFE700BF0200010070B504460D461646C2
:100C9C002068436913F0400301D0002070BD426905
:100CAC00D2060BD56FF0100242612022236484F827
:100CBC003C302363012084F83D2070BD5DB9236C6A
:100CCC00032043F020032364202384F83D300023C9
:100CDC0084F83C3070BDFFF701FD801B8542D7D2F4
:100CEC00EDE770B504460D46164623685B695B0755
:100CFC0001D5002070BD2046FFF750FEA8B96A1C34
:100D0C00F3D065B9236C202243F020032364002325
:100D1C000320236384F83C3084F83D2070BDFFF73A
:100D2C00DDFC801B8542E0D2ECE7012070BD0000A9
:100D3C0038B5044608B9012038BD90F83D3003F0B1
:100D4C00FF021BB980F83C2001F020FC2423226810
:100D5C0084F83D30136823F00103136000F098FC15
:100D6C0063682F4A934230D82E4A9042E3D92E4AD8
:100D7C002168B0FBF2F24A6001320A62284A01385B
:100D8C00934232D85B00B0FBF3F0431CC3F30B036C
:100D9C00042B38BF0423CB61226AE3690020134380
:100DAC000B60E268236913438B60A2696369134388
:100DBC00CB600B6843F001030B602023206484F8A4
:100DCC003D30206384F83E0038BD184A9042B2D9B9
:100DDC00154D4FF49672B0FBF5F521686A434D60E2
:100DEC004FF47A75B2FBF5F2C6E7A26852B903EB81
:100DFC004303B0FBF3F0431CC3F30B036BB143F49D
:100E0C000043C8E719225343B0FBF3F0431CC3F370
:100E1C000B0313B143F44043BDE70123BBE700BF11
:100E2C00A08601007F841E0040420F00FF083D0099
:100E3C002DE9F34704469A46884691460C9EFFF7E7
:100E4C004DFC94F83D300546202B03D0022002B017
:100E5C00BDE8F0870090192301223E492046FFF798
:100E6C00F2FD0028F2D194F83C30012BEED0012396
:100E7C0084F83C30236800271A684146D20758BFD3
:100E8C001A6820465CBF42F001021A601A6822F40C
:100E9C0000621A60212384F83D30402384F83E30F0
:100EAC000A9B27646362BDF82C30019563852A4B3D
:100EBC000096E362638D4A4623855346FFF718FE7E
:100ECC0000282AD0236C84F83C70042B07D1012015
:100EDC00BDE7FFF7E6FD20B1236C042B34D00320D3
:100EEC00B5E7616A27684B1C63620B78228D3B6106
:100EFC00638D501E013B9BB263857B6980B25B079F
:100F0C0020850AD548B18B1C63624B78023A3B6151
:100F1C00638D2285013B9BB26385238D2A46314626
:100F2C002046002BD5D1FFF7DCFE0028D4D1226857
:100F3C00136843F400731360202384F83C0084F896
:100F4C003D3084F83E0082E72268136843F4007356
:100F5C001360BCE7020010000000FFFF2DE9F04712
:100F6C00044686B09A460D469146109FFFF7B6FB95
:100F7C0094F83D300646202B04D00225284606B0B6
:100F8C00BDE8F08700901923012281492046FFF724
:100F9C005AFD0028F1D194F83C30012BEDD00123FF
:100FAC0084F83C3023684FF000081A682946D207B1
:100FBC0058BF1A6820465CBF42F001021A601A68DA
:100FCC0022F400621A60222384F83D30402384F816
:100FDC003E300E9BC4F840806362BDF83C300196F5
:100FEC0063856C4B0097E362638D4A4623855346B9
:100FFC00FFF7D0FD054630B1236C84F83C80042B00
:10100C003DD10125BAE7228D236892B902905A6925
:10101C0002929A690292029A1A6842F400721A6059
:10102C00202384F83D30002384F83E3084F83C3093
:10103C00A4E7012A25D11A6822F480621A6072B6DC
:10104C00236803905A6903929A690392039A1A6867
:10105C0042F400721A6062B6DFF83C81238D002BDB
:10106C00DED0032B77D8012B27D1324639462046C8
:10107C00FFF70AFE00283FD0236C202BC1D103259B
:10108C007CE7022A1A680ED142F400621A6072B62A
:10109C00236804905A6904929A690492049A1A6813
:1010AC0022F48062D6E742F480621A6005905A6995
:1010BC0005929B690593059BCEE7022B00963B4658
:1010CC004FF000024146204624D1FFF7BCFC00281B
:1010DC00D5D172B623681A6842F400721A60626A3B
:1010EC001B69511C61621370238D013B2385638D39
:1010FC00013B9BB2638562B6636A5A1C62622268CA
:10110C0012691A70238D013B2385638D013B9BB2C1
:10111C006385A3E7FFF797FC02460028AFD121684F
:10112C000B6823F480630B6072B6636A2046591C0B
:10113C006162216809691970238D0096013B238532
:10114C00638D4146013B9BB263853B46FFF77BFCBD
:10115C000028BFD093E7324639462046FFF794FD6E
:10116C00002889D1636A5A1C6262226812691A705B
:10117C00238D2268013B2385638D013B9BB26385E4
:10118C0053695B077FF56AAF636A591C6162B7E705
:10119C00020010000000FFFF0400010003682DE9AD
:1011AC00F341DB07054610D42B689F075ED42B68F0
:1011BC00190700F195802B685A0700F1BF80EA6986
:1011CC00002A40F02D81002014E0904C636803F05D
:1011DC000C03042B07D0636803F00C03082B0CD111
:1011EC006368DE0309D523689C03DDD56B68002B8F
:1011FC00DAD1012002B0BDE8F0816B68B3F5803F15
:10120C0010D1236843F480332360FFF767FA064656
:10121C0023689803C8D4FFF761FA801B6428F7D9B8
:10122C000320E7E79BB9236823F48033236023680A
:10123C0023F480232360FFF751FA064623689903B1
:10124C00B2D5FFF74BFA801B6428F7D9E8E7B3F562
:10125C00A02F236803D143F480232360D1E723F428
:10126C0080332360236823F48023CDE7674C6368C5
:10127C0013F00C0F07D0636803F00C03082B10D18C
:10128C006368DA030DD423689B0702D52B69012B05
:10129C00AFD123686A6923F0F80343EAC2032360E1
:1012AC0085E72A695A4B6AB101221A60FFF716FAD0
:1012BC00064623689F07ECD4FFF710FA801B022820
:1012CC00F7D9ADE71A60FFF709FA064623689807C5
:1012DC007FF56DAFFFF702FA801B0228F6D99FE766
:1012EC00AA694A4C4B4BDAB101221A60FFF7F6F9A6
:1012FC000646636A9B070DD54FF4FA52464B1B68A2
:10130C00B3FBF2F3019300BF019B5A1E0192002B19
:10131C00F9D150E7FFF7E2F9801B0228E9D97FE702
:10132C001A60FFF7DBF90646636A9F077FF543AF48
:10133C00FFF7D4F9801B0228F6D971E7334CE36927
:10134C00D80024D40127E36943F08053E361E369B7
:10135C0003F080530093009B304E3368D90518D5A9
:10136C00EB68012B26D1236A43F001032362FFF7BC
:10137C00B5F941F288368046236A9B073FD5002F8A
:10138C003FF41DAFE36923F08053E36117E70027B7
:10139C00E2E7336843F480733360FFF79FF98046CC
:1013AC003368DA05DCD4FFF799F9A0EB0800642860
:1013BC00F6D935E7ABB9236A41F2883823F001033B
:1013CC002362236A23F004032362FFF787F906469E
:1013DC00236A9807D3D5FFF781F9801B4045F7D9CD
:1013EC001EE7052B236A03D143F004032362BAE7FB
:1013FC0023F001032362236A23F00403B6E7FFF70B
:10140C006DF9A0EB0800B042B6D909E70010024014
:10141C00000042428004424208000020007000405C
:10142C00224C636803F00C03082B3FF4E2AE00235C
:10143C001F4E022A33602BD1FFF750F90746236861
:10144C0099011FD42B6AB3F5803F05D16268A96856
:10145C0022F400320A436260696A62680B4322F428
:10146C0074121343636001233360FFF737F90546A9
:10147C0023689A013FF5A7AEFFF730F9401B02280D
:10148C00F6D9CDE6FFF72AF9C01B0228D7D9C7E653
:10149C00FFF724F9054623689B017FF594AEFFF70F
:1014AC001DF9401B0228F6D9BAE600BF0010024015
:1014BC006000424230B5194B87B002AC03F1100505
:1014CC00224618685968083303C2AB421446F7D158
:1014DC0001238DF80430022311498DF805304B6837
:1014EC0003F00C02082A17D1C3F3834206A8024466
:1014FC00DB0312F8102C0CD54B680A48C3F340439D
:10150C00504306AA134413F8143CB0FBF3F007B095
:10151C0030BD05485043FAE70248F8E7843100082B
:10152C000010024000127A0000093D00544A2DE9D7
:10153C00F0411368054603F007038B420E462AD38D
:10154C0029688C0734D4CA0747D44D4A136803F072
:10155C0007039E42C0F082802A684A4C12F0040FA6
:10156C0040F08780130706D563682A6923F460531B
:10157C0043EAC2036360FFF79DFF6368424AC3F30B
:10158C000313D35CD840414B18600020FFF764F87C
:10159C000020BDE8F081136823F007030B431360B0
:1015AC00136803F007039942CAD00120BDE8F0810B
:1015BC00344B11F0040F1EBF5A6842F4E0625A60BB
:1015CC00080742BF5A6842F460525A605A68A868C9
:1015DC0022F0F00202435A60B5E76A68294C012AEE
:1015EC0023681CD113F4003FDFD0636841F28838C4
:1015FC0023F0030313436360FFF770F86B6807462F
:10160C00012B14D1636803F00C03042B9DD0FFF75E
:10161C0065F8C01B4045F5D90320BDE8F081022ACE
:10162C0002D113F0007FDFE713F0020FDCE7022B8F
:10163C000FD1636803F00C03082B86D0FFF74EF82C
:10164C00C01B4045F5D9E7E7FFF748F8C01B4045FC
:10165C00E2D8636813F00C0FF6D176E7136823F029
:10166C00070333431360136803F007039E429CD1B6
:10167C0072E76368E96823F4E0630B43636071E726
:10168C000020024000100240A73200080800002091
:10169C00044B054A5B68C3F30223D35C034A10680E
:1016AC00D840704700100240B732000808000020F4
:1016BC00044B054A5B68C3F3C223D35C034A10682E
:1016CC00D840704700100240B732000808000020D4
:1016DC002DE9F0470568C2682B69016923F4405372
:1016EC0013432B618368EA680B43416922F4B052BF
:1016FC0022F00C020B431343EB606B69826923F4F9
:10170C00407313436B61404B81469D424FF019046B
:10171C0046D1FFF7CDFF04FB00F3D9F804604FF07E
:10172C006408B600B3FBF6F3B3FBF8F31E01FFF746
:10173C00BFFF6043D9F804309B00B0FBF3F7FFF711
:10174C00B7FF6043D9F804309B00B0FBF3F3B3FB55
:10175C00F8F308FB13731B013233B3FBF8F303F0FC
:10176C00F007FFF7A5FF6043D9F804209200B0FB07
:10177C00F2FAFFF79DFF6043D9F804309B00B0FBF1
:10178C00F3F3B3FBF8F308FB13A31B013233B3FBE6
:10179C00F8F303F00F033B433344AB60BDE8F08731
:1017AC00FFF776FF04FB00F3D9F804604FF06408F0
:1017BC00B600B3FBF6F3B3FBF8F31E01FFF768FFBB
:1017CC006043D9F804309B00B0FBF3F7FFF760FFE0
:1017DC006043D9F804309B00B0FBF3F3B3FBF8F390
:1017EC0008FB13731B013233B3FBF8F303F0F00760
:1017FC00FFF74EFF6043D9F804209200B0FBF2FAD9
:10180C00FFF746FFB7E700BF00380140F8B50446C4
:10181C000E4617461D4621680B6836EA030301D1B4
:10182C000020F8BD6B1CF7D095B923680320DA684B
:10183C0022F4D072DA605A6922F001025A61202334
:10184C0084F8393084F83A30002384F83830F8BD05
:10185C00FEF744FFC01B8542DDD2E6E710B5044617
:10186C0040B390F8393003F0FF021BB980F83820F0
:10187C0000F0B6FF2423226884F83930D368204660
:10188C0023F40053D360FFF723FF236800201A6969
:10189C0022F490421A615A6922F02A025A61DA68DB
:1018AC0042F40052DA602023E06384F8393084F883
:1018BC003A3010BD012010BD2DE9F0411F4690F8C3
:1018CC0039300446202B0D4690464ED1002949D084
:1018DC00002A47D090F83830012B46D0012380F8ED
:1018EC0038300023C363212380F83930FEF7F6FE2D
:1018FC000646A4F82480A4F82680E38C9BB26BB92E
:10190C003B46324640212046FFF780FFA8B92023F2
:10191C0084F8380084F83930BDE8F081E38C324625
:10192C00013B9BB2E384A3688021B3F5805F204622
:10193C003B460ED1FFF76AFF10B10320BDE8F081E2
:10194C002B882268C3F308035360236943B902351B
:10195C00D3E7FFF75BFF0028EFD123682A785A60A2
:10196C000135CAE70120BDE8F0810220BDE8F08115
:10197C007FB5012306AA02F8011D8DE80C00024672
:10198C0005480293AE210068FFF752FAB0FA80F0D6
:10199C00400907B05DF804FB001800201FB50123B7
:1019AC008DE80A00024606480293AE210068FFF754
:1019BC00D5FAB0FA80F0400905B05DF804FB00BF21
:1019CC000018002073B50E460DF1070105461446AC
:1019DC00FFF7E4FF012813D19DF80710B04004F085
:1019EC00010421EA0001B4402143C9B228468DF814
:1019FC000710FFF7BDFF431E5842584102B070BD9F
:101A0C000020FBE7F0B506230026012787B006600F
:101A1C0005460E601D48019304AB009302970C46DB
:101A2C003B460722AE210068FFF798FA60BB2B6893
:101A3C009DF81020384603EB02432B602B689DF871
:101A4C00112003EB02232B602A689DF812301344FB
:101A5C002B6023689DF8132003EB0243236023685B
:101A6C009DF8142003EB0223236022689DF81530A7
:101A7C00134423602B68C3F311032B602368C3F357
:101A8C001103236007B0F0BD3046FBE700180020BF
:101A9C00024607210220FFF795BF024606210220CD
:101AAC00FFF790BF37B50024054604700DF1070110
:101ABC002046FFF773FF012811BF20469DF8073021
:101ACC002A7823F01E0304BF13432B7003B030BDE0
:101ADC00F7B50DF10700FFF7E5FF0128F9D19DF9E6
:101AEC000730002B05DB9DF807305B0637D403B0BD
:101AFC00F0BD334D11242F46324E2868324B2968E5
:101B0C0003EB800006EB8101FFF77CFF0128F4D189
:101B1C002E4B1A78DAB12A6856F822104CF24F3252
:101B2C00914201D800221A704FF416713B68013CA7
:101B3C000133B3FBF1F201FB1233254A3B6013680E
:101B4C0014F0FF0403F101031360D6D1CBE72A682C
:101B5C0056F82220B2F5C86F88BF1870E4E7184C0D
:101B6C00184D26462068184B216803EB800005EBC6
:101B7C008101FFF747FF0128F4D1144B1A78B2B159
:101B8C00226855F822104CF24F32914201D80022B3
:101B9C001A704FF4167133680133B3FBF1F201FB89
:101BAC0012330B4A33601368013313609FE72268CA
:101BBC0055F82220B2F5C86F88BF1870E9E700BF4E
:101BCC00081800201018002078210020051800208B
:101BDC00FC17002008B500F01F010420FFF7C8FE19
:101BEC00431E5842584108BD08B500F01F0105209E
:101BFC00FFF7BEFE431E5842584108BD08B500F021
:101C0C001F010620FFF7B4FE431E5842584108BD81
:101C1C0013B504460DF107010820FFF7BFFE01289C
:101C2C0010D19DF80710082021F0070141EA44115A
:101C3C00C9B28DF80710FFF79BFE431E584258415E
:101C4C0002B010BD0020FBE700F0010204210820C7
:101C5C00FFF7B8BE13B504460DF107010820FFF7D6
:101C6C009DFE012817D1202C28BF2024112C38BF11
:101C7C0011249DF80710C4F1200421F00F01214319
:101C8C00C9B208208DF80710FFF772FE431E5842A8
:101C9C00584102B010BD0020FBE7FF2307B54021DF
:101CAC0009208DF80730FFF763FE012803D00020D0
:101CBC0003B05DF804FB0DF107010920FFF76EFE80
:101CCC000128F4D19DF807305B06F4D4F0E713B586
:101CDC0004460DF107010920FFF760FE012810D121
:101CEC009DF8071004F0070421F007012143092097
:101CFC008DF80710FFF73CFE431E5842584102B0C6
:101D0C0010BD0020FBE713B504460DF107010A20B6
:101D1C00FFF744FE012811D19DF80730610123F033
:101D2C00030301F0600119430A208DF80710FFF737
:101D3C001FFE431E5842584102B010BD0020FBE765
:101D4C0013B504460DF107010A20FFF727FE012801
:101D5C0011D19DF80730A10023F0070301F01C01FD
:101D6C0019430A208DF80710FFF702FE431E584254
:101D7C00584102B010BD0020FBE713B504460DF12D
:101D8C0007010A20FFF70AFE012810D19DF8071061
:101D9C0004F0030421F0030121430A208DF80710FD
:101DAC00FFF7E6FD431E5842584102B010BD00201B
:101DBC00FBE708B501460C20FFF7DAFD431E58423D
:101DCC00584108BD08B501460D20FFF7D1FD431E53
:101DDC005842584108BD0000014B1868704700BFBD
:101DEC000C180020014B1868704700BFDC2A00203B
:101DFC0030B52F4C85B02378032B19D8DFE803F0CE
:101E0C00021A2C4F00232B4A13602B4A13602B4AC7
:101E1C0012786AB12A4A242013602A4B1A682A4B7A
:101E2C001A60FFF7C6FF2420FFF7CCFF01232370B5
:101E3C0005B030BD214B1B7833B1214B1B68B3F57A
:101E4C00FA7FF5D90223F2E70020FFF7B2FF012059
:101E5C00FFF7B8FF0023EAE7184B1B78002BF3D0F1
:101E6C001A4A194D0392134A2B680292184A9BB2D4
:101E7C000192114A1749009217484FF4FA7200F078
:101E8C0047F94FF416712B686433B3FBF1F201FB85
:101E9C00123300222B600A4B1A600323C7E7074B4F
:101EAC001B78002BD0D0064B1B68642BC9E700BFF6
:101EBC00041800200C180020DC2A00200518002033
:101ECC00FC1700200818002074210020D82A0020BC
:101EDC007021002078210020101800202B4B07B512
:101EEC001860FFF7DAFE012803D0002003B05DF87C
:101EFC0004FB0DF107010020FFF750FD0128F4D180
:101F0C000020FFF767FE0128EFD10020FFF76CFEE1
:101F1C000128EAD10020FFF771FE0128E5D100204D
:101F2C00FFF776FE0128E0D10020FFF78DFE012897
:101F3C00DBD11120FFF78EFE0128D6D10320FFF74D
:101F4C00C6FE0128D1D1FFF7DEFE0128CDD1FFF767
:101F5C00F7FE0128C9D10320FFF70FFF0128C4D1D8
:101F6C000020FFF726FF0128BFD1FFF72BFF012828
:101F7C00BBD1FFF78DFD0128B7D1FFF78EFD0128EE
:101F8C00B3D10022024B1A70B0E700BF001800203A
:101F9C00041800202DE9F0430024814601250C6033
:101FAC0003F1FF3C654501DBBDE8F083079C52F86B
:101FBC002560AF00A64205F1010422DD174457F855
:101FCC00047CBE421DDD9C42A4EB050E274605D1C8
:101FDC0052F82440A64209DC3D46E3E752F82400BF
:101FEC0004F101088642F3D14446ECE70C680E2C50
:101FFC00F2DC661C0E6049F824500EF101046719DE
:10200C00EAE72746E8E7F0B5012304468B4200DBFC
:10201C00F0BD54F8046F1A46254655F8047CBE42B0
:10202C0003DA013A45F80479F7D140F8226001331C
:10203C00ECE72DE9F04394460D460123634501DBA3
:10204C00BDE8F08355F8049F1C462E4600EB89082A
:10205C00D8F8002056F8047C964650F82720964570
:10206C0003DD013C46F80479F2D141F824900133A8
:10207C00E4E72DE9F84304461F4610460D460A686E
:10208C002146FFF7D6FF4FF0FF326FF0404E201F76
:10209C00C7F1000C29688A4204DB2046BDE8F843EE
:1020AC00FFF7B1BF0646013271442A6004EB81018F
:1020BC0002F1FF388E4201D10430EBE7B8F1FF3F5B
:1020CC000CBFC146D0F8009056F8043FA3EB0903AF
:1020DC00BB4201DC6345EDDAD5F8009009F1010350
:1020EC002B60336844F82930E4E7F7B50546089FC0
:1020FC000C460097FFF74EFF099B2846FFF7B9FFE8
:10210C0022680A9B9A42D4BF2260236003B0F0BDC0
:10211C002DE9F04FBBB004910021804617461E46B6
:10212C001A4608464FF41674B942C0F2B480B0FB9C
:10213C00F7F200214FF41674CC4DB942C0F2B580C1
:10214C00CA4C0421254604F5F86295E809000344BD
:10215C00A8680344E868034493FBF1F345F8043B97
:10216C00AA42F2D1002340F2EF1CC049DFF800E391
:10217C0051F8042F51F8040C121A4EF82320013395
:10218C006345F5D10220BA4B03F5F7611A6853F891
:10219C0004EF724492FBF0F2994243F8042CF5D10F
:1021AC00002140F27A4C40F2E919B148DFF8D4E250
:1021BC0000231A4601EB030B3EF813A050F82BB08A
:1021CC000133052B0BFB1A22F4D192FBFCF240F8E5
:1021DC00212001314945EBD1002240F2EF1013468A
:1021EC00DFF88CE25EF82310013381EAE17CACEB82
:1021FC00E17C83426244F5D1052192FBF3F202911A
:10220C000821009201912BA8994A07A9FFF76DFFAD
:10221C00DDF81C900020B9F1010F54DD8646012138
:10222C002BAB53F8042F53F8040C121A96444A1C87
:10223C00914546D19EFBF1F0FEF744F801468D48DE
:10224C00FEF748F9FEF7E2F9469B479A186001231E
:10225C00137000230DA92BA84B453ADB00234FF438
:10226C001672DFF808C28448BB4239DB00231A46D9
:10227C00DFF8F8810DF1340C0DF1700A4A453FDBA3
:10228C00012B58DC7D4B449A13600023459A137044
:10229C003BB0BDE8F08F58F8225001322844B2FB15
:1022AC00F4F5013104FB15223EE758F82300013305
:1022BC00801A45F82100B3FBF4F0013104FB103314
:1022CC003BE71146ADE76D4B469A1360479B187080
:1022DC00BFE750F82320023241F823200133BBE73B
:1022EC0058F826E004994CF823E051F826E0013622
:1022FC0040F823E0B6FBF2FE013302FB1E66B3E7A7
:10230C005CF82210881FB0F5F27F08D24FF080776E
:10231C000126481F0531884203D106B90133013229
:10232C00ACE758F820E07745C2BF4AF82200774660
:10233C0000260130EFE704264F49A76894E8050012
:10234C0002443A44E7683A4492FBF6F28F6844F848
:10235C00042B91E8050002443A44CF68A5423A4464
:10236C0092FBF6F241F8042BE7D100221CAD089247
:10237C0009920A920B920C9255F82210B1F5FA7F41
:10238C0080DC01329342F7D1002637463446013BBC
:10239C00DFF8D8E0DFF8E0C004960593049B059ABB
:1023AC0093421DDB214608A86410FFF72CFE012C7C
:1023BC003AAA4FEA840379DD02EB840454F8C82C62
:1023CC0054F8CC3C1344022293FBF2F3DA1EB42AE9
:1023DC003FF658AF2A4AD35C449A1360012355E761
:1023EC0055F8048F049B55F8042C0133A8EB020913
:1023FC00B9F10A0F0493D1DD4FF07F431046194613
:10240C00404541DB5EF822A05EF82800A0EB0A0BE9
:10241C00B01A00FB0BF090FBF9F082445EF8270039
:10242C00A0EB0A0A01FB0AF1C9110029B6DD042C44
:10243C00B4DC5CF822005CF82880BA1AA8EB00081F
:10244C0002FB08F292FBF9F202445CF82700801AB6
:10245C004343DB11A2D03AAA02EB84086422534313
:10246C0093FBF1F1013448F8C81C97E74C080020A5
:10247C008C0000200080BB451C10002019FCFFFFC5
:10248C00D2310008943100085EF820B04FEA800A7F
:10249C005AF80CA05B45ACBF9B4606465145ACBFF9
:1024AC008A4607465B4601305146A9E7134453F868
:1024BC00C83C8BE7102230B589B00DEB020000212F
:1024CC0000F01AFA1D4B1E4D9A69284642F0100274
:1024DC009A619A694FF4005102F010020192019A2C
:1024EC009A69002442F004029A619A6902F004028B
:1024FC000292029A9A6942F008029A619B69002240
:10250C0003F008030393039BFEF736FA4FF40053D2
:10251C00049301230593022304A9284607930694E8
:10252C00FEF74AF920230493064B04A906480593A9
:10253C000694FEF741F909B030BD00BF001002400F
:10254C000010014000002110000C014008B50C489F
:10255C000C4BDFF834E04FF4804280E80840002355
:10256C0002618360C36043618361C3610362FEF7F0
:10257C00DFFB18B1BDE8084000F0A5B808BD00BFEE
:10258C00E02A002000540040801A060010B50446D2
:10259C0086B01022002102A800F0AEF92268114B7F
:1025AC009A421CD1104C02A9A369104843F00803AD
:1025BC00A361A36903F008030093009BC02302935B
:1025CC001223039303230593FEF7F6F8E36943F410
:1025DC000013E361E36903F400130193019B06B05C
:1025EC0010BD00BF0054004000100240000C014020
:1025FC0010B50446FDF7A4FD2146BDE8104082B29B
:10260C004FF47A730148FFF757B900BF542B0020E1
:10261C0000B591B02822002106A800F06DF9142213
:10262C00002101A800F068F90223069301230A9304
:10263C00102306A80B93FEF7B1FD00210F2301A870
:10264C0001930291039104910591FEF76FFF11B074
:10265C005DF804FB08B5FEF723F8FFF7D9FFFFF789
:10266C0029FFFFF773FF00F09FF8002201211720CC
:10267C00FEF74CF81720FEF77DF80C48FFF7B8FF73
:10268C000B48FFF72BFC0B4D0B4CFFF7B1FBFFF787
:10269C00A3FB0646FFF7A6FB324603462946204617
:1026AC0000F032F92046FFF7A3FFEEE78A3200086C
:1026BC00E02A002092320008342B0020202801D17F
:1026CC00FFF706BA704770470E4B82B09A6942F01A
:1026DC0001029A619A6902F001020092009ADA6989
:1026EC0042F08052DA61DB69074A03F080530193B0
:1026FC00019B536823F0E06343F08063536002B0A6
:10270C00704700BF00100240000001407047FEE718
:10271C00FEE7FEE7FEE7704770477047FDF7D2BF54
:10272C002020FEF72FB9000008B50A4B02461968A5
:10273C0009B9094919606946186802448A4206D9E0
:10274C0000F0B0F80C2303604FF0FF3008BD1A60A6
:10275C0008BD00BFEC170020982B00200F4B1A6807
:10276C0042F001021A6059680D4A0A405A601A6810
:10277C0022F0847222F480321A601A6822F48022C9
:10278C001A605A6822F4FE025A604FF41F029A60D3
:10279C004FF00062034B9A60704700BF001002407C
:1027AC000000FFF800ED00E008B54FF4E13E0A48E8
:1027BC000A4B0C2280E80840002342618360C3600E
:1027CC0003618361C361FFF749F818B1BDE80840A4
:1027DC00FFF779BF08BD00BF542B00200038014023
:1027EC0010B5044686B01022002102A800F084F82F
:1027FC002268174B9A4228D103F558439A6902A9CB
:10280C0042F480429A619A69124802F48042009222
:10281C00009A9A6942F004029A619B6903F00403DE
:10282C000193019B4FF40073029302230393032340
:10283C000593FDF7C1FF4FF480630293002302A9B7
:10284C00044803930493FDF7B7FF06B010BD00BF17
:10285C000038014000080140002103E00B4B5B589D
:10286C00435004310A480B4B42189A42F6D30A4A99
:10287C0002E0002342F8043B084B9A42F9D3FFF7DD
:10288C006DFF00F015F8FFF7E5FE7047FC3200080D
:10289C00000000207000002070000020982B002009
:1028AC00FEE70000014B1868704700BF0C000020C9
:1028BC0070B500250C4E0D4CA41BA410A54209D1DB
:1028CC0000F04EFC00250A4E0A4CA41BA410A54295
:1028DC0005D170BD56F8253098470135EEE756F80E
:1028EC00253098470135F2E7F4320008F43200083D
:1028FC00F4320008F832000803460244934200D137
:10290C00704703F8011BF9E70EB44FF4027100B5E0
:10291C009CB0ADF814106FF00041049107914FF684
:10292C00FF711DAB02900690084853F8042BADF8CC
:10293C001610006802A9019300F066F80022029BB1
:10294C001A701CB05DF804EB03B070470C0000204B
:10295C002DE9F0478E6882469E420C469146984679
:10296C0035D88A8912F4906F31D002232568096911
:10297C006F1A656905EB450595FBF3F508F1010345
:10298C003B449D4238BF1D46530531D5294600F0C6
:10299C0047FB064650B90C23CAF80030A3894FF008
:1029AC00FF3043F04003A381BDE8F0873A4621692C
:1029BC0000F0C4FAA38923F4906343F08003A3814D
:1029CC0026613E44266046466561ED1BA560464582
:1029DC0028BF464649463246206800F0BAFAA3683A
:1029EC0000209B1BA36023681E442660BDE8F08773
:1029FC002A4600F073FB06460028E1D121695046B7
:102A0C0000F0C2FAC7E700002DE9F04F9DB0039328
:102A1C008B8980461C060D4616460FD50B696BB983
:102A2C00402100F0FDFA2860286128B90C23C8F871
:102A3C0000304FF0FF30C4E040236B61002309935A
:102A4C0020238DF8293030234FF0010B8DF82A30DC
:102A5C0037463C4614F8013B002B3CD1B7EB060A39
:102A6C000BD05346324629464046FFF771FF0130E2
:102A7C0000F0A280099B534409933B78002B00F093
:102A8C009B8000234FF0FF3204930793059206932B
:102A9C008DF853301A9305222178504800F040FAF3
:102AAC00671C049BD8B9D90644BF20228DF853204B
:102ABC001A0744BF2B228DF8532022782A2A16D0CD
:102ACC0000210A20079A27463B780134303B092B1A
:102ADC0050D9C9B111E0252BC0D02746B9E73F4AE0
:102AEC003C46801A0BFA00F018430490D3E7039A83
:102AFC00111D12680391002A01DB079204E0524277
:102B0C0043F00203079204933B782E2B0DD17B7874
:102B1C00791C2A2B32D1039B02371A1D1B68039296
:102B2C00002BB8BF4FF0FF3305932D4C032239789F
:102B3C00204600F0F5F938B14023001B03FA00F0F1
:102B4C00049B0137034304933978062225487E1CE5
:102B5C008DF8281000F0E4F9002835D0224BFBB991
:102B6C00039B073323F0070308330393099B4B4460
:102B7C0009936DE700FB02320121A4E700230A242C
:102B8C00184605930F463A780131303A092A03D991
:102B9C00002BCAD00590C8E704FB00200123F1E705
:102BAC0003AB00932A46114B04A94046AFF30080B7
:102BBC00B0F1FF3F8146D9D1AB895B063FF539AF08
:102BCC0009981DB0BDE8F08F03AB00932A46074B64
:102BDC0004A9404600F084F8EAE700BFBF320008C1
:102BEC00C5320008C9320008000000005D29000849
:102BFC002DE9F04791461F468A680B6906469342B9
:102C0C00B8BF1346C9F8003091F843200C46DDF8E4
:102C1C00208012B10133C9F800302368990642BFF5
:102C2C00D9F800300233C9F80030256815F00605D4
:102C3C0007D104F1190AE368D9F800209B1A9D42C8
:102C4C002ADB94F843302268003318BF0123920624
:102C5C002FD404F1430239463046C047013022D00C
:102C6C002368E56803F00603042B18BF0025D9F888
:102C7C0000204FF0000908BFAD1AA368226908BFF5
:102C8C0025EAE5759342C4BF9B1AED181A344D45DD
:102C9C001BD10020BDE8F08701235246394630464F
:102CAC00C047013003D14FF0FF30BDE8F08701354C
:102CBC00C1E73020E11881F843005A1C94F8451004
:102CCC002244023382F84310C3E7012322463946DB
:102CDC003046C0470130E6D009F10109D7E70000C2
:102CEC002DE9F04317460A7E85B06E2A98460646B3
:102CFC000C460C9B01F1430E00F0BC801AD8632AE1
:102D0C002ED00AD8002A00F0C880582A00F08A80F9
:102D1C0004F1420584F842202AE0642A01D0692A91
:102D2C00F6D121681A6811F0800F23D0111D19609B
:102D3C00136827E0732A00F0B48008D86F2A2AD0D1
:102D4C00702AE5D10A6842F020020A6003E0752A75
:102D5C0021D0782ADCD178226F4984F8452064E0B0
:102D6C001A6801F14205111D1960136884F842308C
:102D7C000123A3E011F0400F02F104011960D7D038
:102D8C00B2F90030002B03DA2D225B4284F8432089
:102D9C0062490A2217E02068196810F0800F03D0EE
:102DAC00081D18600B6806E010F0400F01F10400DC
:102DBC001860F7D00B886F2A14BF0A2208225749D3
:102DCC00002084F843006568002DA560C0F29C804B
:102DDC00206820F004002060002B3FD1002D40F033
:102DEC0095807546082A0BD12368DA0708D5236924
:102DFC0062689A42DEBF302305F8013C05F1FF35CD
:102E0C00AEEB05032361CDF800803B4603AA2146B7
:102E1C003046FFF7EDFE013055D14FF0FF3005B0D5
:102E2C00BDE8F08381F845203C492268186812F00F
:102E3C00800F00F104051D6001D0036802E0550607
:102E4C00FBD50388D00744BF42F0200222601BB997
:102E5C00226822F0200222601022B1E77546B3FBF3
:102E6C00F2F002FB1033CB5C05F8013D0346002861
:102E7C00F5D1B7E708681A6810F0800F496904D0DB
:102E8C00101D18601368196007E010F0400F02F174
:102E9C00040018601368F6D019800023754623616E
:102EAC00B1E71A68111D196015680021626828467F
:102EBC0000F036F808B1401B6060636823610023A2
:102ECC0084F843309FE723692A4639463046C04789
:102EDC000130A2D023689B0707D5002504F11909FE
:102EEC00E368039A9B1A9D4205DBE068039B9842BA
:102EFC00B8BF184693E701234A4639463046C047C7
:102F0C0001308AD00135EBE7002BA7D10B7804F107
:102F1C00420584F8423065E7E1320008D0320008FF
:102F2C0010B5C9B202449042034601D1002010BD35
:102F3C001C7801308C42F6D1184610BD10B5431EDA
:102F4C000A44914200D110BD11F8014B03F8014F16
:102F5C00F7E7884210B501EB020303D8421E9942F1
:102F6C000CD110BD9842F9D28118D21AD34200D19B
:102F7C0010BD13F8014D01F8014DF7E711F8014BA5
:102F8C0002F8014FEBE7000038B50546002943D0A5
:102F9C0051F8043C0C1F002BB8BFE41800F0D4F817
:102FAC001E4A1368104633B9636014602846BDE8A6
:102FBC00384000F0CAB8A3420BD92168621893427A
:102FCC0001BF1A685B685218226063600460EDE709
:102FDC0013465A680AB1A242FAD919685818A04285
:102FEC000BD120680144581882421960DED1106858
:102FFC005268014419605A60D8E702D90C232B603F
:10300C00D4E7206821188A4201BF11685268091858
:10301C00216062605C60C9E738BD00BFF01700201A
:10302C0070B5CD1C25F0030508350C2D38BF0C25CB
:10303C00002D064601DBA94203D90C233360002086
:10304C0070BD00F081F8234A1468214691B9224CD6
:10305C0023681BB9304600F067F8206029463046DB
:10306C0000F062F8431C26D10C233046336000F08C
:10307C006CF8E4E70B685B1B1AD40B2B0FD90B60B5
:10308C00CC18CD50304600F060F804F10B00231D35
:10309C0020F00700C31A1BD05A42E25070BD8C427C
:1030AC000BBF63684B681360636018BF0C46E9E79D
:1030BC000C464968CAE7C41C24F00304A04205D09E
:1030CC00211A304600F030F80130CDD02560D9E718
:1030DC0070BD00BFF0170020F4170020F8B50746AC
:1030EC0014460E4621B91146BDE8F840FFF798BFCB
:1030FC0022B9FFF749FF25462846F8BD00F026F80F
:10310C0084420FD921463846FFF78AFF054600282E
:10311C00F2D031462246FFF711FF31463846FFF711
:10312C0033FFE9E73546E7E738B50023054C05469C
:10313C0008462360FFF7F8FA431C02D1236803B159
:10314C002B6038BD942B00207047704751F8040C4D
:10315C000028A0F10400BCBF0B58C0187047000039
:10316C00F8B500BFF8BC08BC9E467047F8B500BF68
:08317C00F8BC08BC9E46704738
:1031840002030405060708090A0B0C0D0E0F1010A4
:1031940029001401000214012900000000000000AD
:1031A400000000000000000000000000000000001B
:1031B400000000000000000000000000000000000B
:1031C40000000000000000000000000000005F5F3D
:1031D4005F606060616161616162626262626363D7
:1031E40063636363636364646464646464646464A1
:1031F4006464646464646464646463636363636391
:1032040063636262626262626161616160606060A4
:103214005F5F5F5E5E5E5D5D5D5C5C5C5B5B5A5ADE
:10322400595959585857575656555554545352523C
:10323400515150504F4E4E4D4C4C4B4A4A494848C0
:10324400474645454443424241403F3E3E3D3C3B68
:103254003A39383837363534333231302F2E2D2C35
:103264002B2A2928272625242322211F1E1D1C1B27
:103274001A19171615141311100F0E0C0B0A09073F
:1032840006050302010053544152540A0D004852EA
:103294003A20256C640A0D53704F323A20256C6431
:1032A4000A0D0000000000000000000102030406F3
:1032B4000708090000000001020304232D302B201D
:1032C40000686C4C00656667454647003031323310
:1032D400343536373839414243444546003031327B
:1032E400333435363738396162636465660000000B
:0432F400310100089C
:0432F8000D010008BC
:1032FC00010000001000000000A24A041000002091
:10330C0000000000000000000000000000000000B1
:10331C0000000000000000000000000000000000A1
:10332C000000000000000000000000000000000091
:10333C000000000000000000000000000000000081
:10334C000000000000000000000000000000000071
:10335C000000000000000000000000000000000061
:040000050800286562
:00000001FF
